{
  "contractName": "Marketplace",
  "abi": [
    {
      "constant": true,
      "inputs": [],
      "name": "name",
      "outputs": [
        {
          "name": "",
          "type": "string"
        }
      ],
      "payable": false,
      "stateMutability": "view",
      "type": "function",
      "signature": "0x06fdde03"
    },
    {
      "inputs": [],
      "payable": false,
      "stateMutability": "nonpayable",
      "type": "constructor",
      "signature": "constructor"
    }
  ],
  "bytecode": "0x608060405234801561001057600080fd5b506040805190810160405280600e81526020017f4d414920556e69766572736974790000000000000000000000000000000000008152506000908051906020019061005c929190610062565b50610107565b828054600181600116156101000203166002900490600052602060002090601f016020900481019282601f106100a357805160ff19168380011785556100d1565b828001600101855582156100d1579182015b828111156100d05782518255916020019190600101906100b5565b5b5090506100de91906100e2565b5090565b61010491905b808211156101005760008160009055506001016100e8565b5090565b90565b6101a0806101166000396000f3fe608060405260043610610041576000357c0100000000000000000000000000000000000000000000000000000000900463ffffffff16806306fdde0314610046575b600080fd5b34801561005257600080fd5b5061005b6100d6565b6040518080602001828103825283818151815260200191508051906020019080838360005b8381101561009b578082015181840152602081019050610080565b50505050905090810190601f1680156100c85780820380516001836020036101000a031916815260200191505b509250505060405180910390f35b60008054600181600116156101000203166002900480601f01602080910402602001604051908101604052809291908181526020018280546001816001161561010002031660029004801561016c5780601f106101415761010080835404028352916020019161016c565b820191906000526020600020905b81548152906001019060200180831161014f57829003601f168201915b50505050508156fea165627a7a72305820a165378a11ce05e150da406ce2360ab907c9d7d2d1024ec15f2ab423cb3a95570029",
  "source": "// SPDX-License-Identifier: SEE LICENSE IN LICENSE\npragma solidity 0.5.0;\n contract Marketplace{\n    string public name;\n\n    constructor() public{\n      name = 'MAI University';\n    }\n }",
  "sourcePath": "/Users/admin1/Desktop/Projects/Blockchain/nft_marketplace/src/contracts/Marketplace.sol",
  "compiler": {
    "name": "solc",
    "version": "0.5.0+commit.1d4f565a.Emscripten.clang"
  },
  "schemaVersion": "3.0.2",
  "updatedAt": "2022-08-23T11:16:24.377Z",
  "devdoc": {
    "methods": {}
  },
  "userdoc": {
    "methods": {}
  }
}